:020000040000fa
:080000000001040000000000f3
:020000040000fa
:0400080004020000ee
:020000040000fa
:04000c0004020000ea
:020000040000fa
:0400100004020000e6
:020000040000fa
:0400140004020000e2
:020000040000fa
:0400180004020000de
:020000040000fa
:04001c0004020000da
:020000040000fa
:0400200004020000d6
:020000040000fa
:0400240004020000d2
:020000040000fa
:0400280004020000ce
:020000040000fa
:04002c0004020000ca
:020000040000fa
:0400300004020000c6
:020000040000fa
:0400340004020000c2
:020000040000fa
:0400380004020000be
:020000040000fa
:04003c0004020000ba
:020000040000fa
:0400400004020000b6
:020000040000fa
:0400440004020000b2
:020000040000fa
:0400480004020000ae
:020000040000fa
:04004c0004020000aa
:020000040000fa
:0400500004020000a6
:020000040000fa
:0400540004020000a2
:020000040000fa
:04005800040200009e
:020000040000fa
:04005c00040200009a
:020000040000fa
:040060000402000096
:020000040000fa
:040064000402000092
:020000040000fa
:04006800040200008e
:020000040000fa
:04006c00040200008a
:020000040000fa
:040070000402000086
:020000040000fa
:040074000402000082
:020000040000fa
:04007800040200007e
:020000040000fa
:04007c00040200007a
:020000040000fa
:040080000402000076
:020000040000fa
:040084000402000072
:020000040000fa
:04008800040200006e
:020000040000fa
:04008c00040200006a
:020000040000fa
:040090000402000066
:020000040000fa
:040094000402000062
:020000040000fa
:04009800040200005e
:020000040000fa
:04009c00040200005a
:020000040000fa
:0400a0000402000056
:020000040000fa
:0400a4000402000052
:020000040000fa
:0400a800040200004e
:020000040000fa
:0400ac00040200004a
:020000040000fa
:0400b0000402000046
:020000040000fa
:0400b4000402000042
:020000040000fa
:0400b800040200003e
:020000040000fa
:0400bc00040200003a
:020000040000fa
:0400c0000402000036
:020000040000fa
:0400c4000402000032
:020000040000fa
:0400c800040200002e
:020000040000fa
:0400cc00040200002a
:020000040000fa
:0400d0000402000026
:020000040000fa
:0400d4000402000022
:020000040000fa
:0400d800040200001e
:020000040000fa
:0400dc00040200001a
:020000040000fa
:0400e0000402000016
:020000040000fa
:0400e4000402000012
:020000040000fa
:0400e800040200000e
:020000040000fa
:0400ec00040200000a
:020000040000fa
:0400f0000402000006
:020000040000fa
:0400f4000402000002
:020000040000fa
:0400f80004020000fe
:020000040000fa
:0400fc0004020000fa
:020000040000fa
:0401000004020000f5
:020000040000fa
:0401040004020000f1
:020000040000fa
:0401080004020000ed
:020000040000fa
:04010c0004020000e9
:020000040000fa
:0401100004020000e5
:020000040000fa
:0401140004020000e1
:020000040000fa
:0401180004020000dd
:020000040000fa
:04011c0004020000d9
:020000040000fa
:0401200004020000d5
:020000040000fa
:0401240004020000d1
:020000040000fa
:0401280004020000cd
:020000040000fa
:04012c0004020000c9
:020000040000fa
:0401300004020000c5
:020000040000fa
:0401340004020000c1
:020000040000fa
:0401380004020000bd
:020000040000fa
:04013c0004020000b9
:020000040000fa
:0401400004020000b5
:020000040000fa
:0401440004020000b1
:020000040000fa
:0401480004020000ad
:020000040000fa
:04014c0004020000a9
:020000040000fa
:0401500004020000a5
:020000040000fa
:0401540004020000a1
:020000040000fa
:04015800040200009d
:020000040000fa
:04015c000402000099
:020000040000fa
:040160000402000095
:020000040000fa
:040164000402000091
:020000040000fa
:04016800040200008d
:020000040000fa
:04016c000402000089
:020000040000fa
:040170000402000085
:020000040000fa
:040174000402000081
:020000040000fa
:04017800040200007d
:020000040000fa
:04017c000402000079
:020000040000fa
:040180000402000075
:020000040000fa
:040184000402000071
:020000040000fa
:04018800040200006d
:020000040000fa
:04018c000402000069
:020000040000fa
:040190000402000065
:020000040000fa
:040194000402000061
:020000040000fa
:04019800040200005d
:020000040000fa
:04019c000402000059
:020000040000fa
:0401a0000402000055
:020000040000fa
:0401a4000402000051
:020000040000fa
:0401a800040200004d
:020000040000fa
:0401ac000402000049
:020000040000fa
:0401b0000402000045
:020000040000fa
:0401b4000402000041
:020000040000fa
:0401b800040200003d
:020000040000fa
:0401bc000402000039
:020000040000fa
:0401c0000402000035
:020000040000fa
:0401c4000402000031
:020000040000fa
:0401c800040200002d
:020000040000fa
:0401cc000402000029
:020000040000fa
:0401d0000402000025
:020000040000fa
:0401d4000402000021
:020000040000fa
:0401d800040200001d
:020000040000fa
:0401dc000402000019
:020000040000fa
:0401e0000402000015
:020000040000fa
:0401e4000402000011
:020000040000fa
:0401e800040200000d
:020000040000fa
:0401ec000402000009
:020000040000fa
:0401f0000402000005
:020000040000fa
:0401f4000402000001
:020000040000fa
:0401f80004020000fd
:020000040000fa
:0401fc0004020000f9
:020000040000fa
:100200000f8020000eff27000e0188000000000074
:10021000000020000000e000020032000001200089
:100220002002880014000700790007000000e000a9
:1002300003003a0000002000010020000200370007
:100240000000200001002000810f7000010032003a
:1002500014000700000020000000e000020032004f
:100260000000020000000000240402000000000062
:100270000040da000000fe004440a90020002000f9
:100280000000e00003003200100020009001880010
:100290004440a800000006008a1f78008b1f7800e9
:1002a00000000600a1028800800478000000eb0036
:1002b0001f003700e284440054a0b4009905ba003e
:1002c000e284440054a0b4009906ba00e2844400d9
:1002d00054a0b4000006eb00476fde00fd07b2003b
:1002e000ae018800636ce10003003a00eaff0700fa
:1002f0000000eb000e003700606ce10008003a00df
:10030000004deb000a05e800020039003420ec0043
:100310000af0a0008b05e900f9ff3e000400370059
:100320006168e100010032000086eb000b0007006d
:1003300019c7ba001905ba000e04e00003003a001c
:100340000a00e000dbff3a0000000600fe07b200f2
:10035000ae0288008a047800f5ff37000cd0a300b5
:10036000e20f4d001c00390089027800354dba00bb
:100370000a05e800020039003420ec000af0a00071
:100380008b05e9000f003200254dba000a05e80090
:10039000020039003420ec000af0a0008b05e900cf
:1003a000080032000c00e0000600320015cdba0053
:1003b0000a05e800020039003420ec000af0a00031
:1003c0008b05e9008984e80054a0b4000b00e0002c
:1003d000e2ff3a00000006009902ba00055d7800cd
:1003e0008b05e900f7ff3200c82ade00055d7800c2
:1003f0008b05e900f3ff32000c00e000f1ff320052
:1004000019ddba00eeff37000040da000000fe0000
:0404100000000500e3
:020000040000fa
:100414000000fa007a26ef008e26ef00a226ef00f5
:10042400b626ef00ca26ef00de26ef000080eb00c0
:10043400b03388000080eb00503488000080eb006b
:10044400f03488000080eb00903588000080eb00d9
:10045400303688000080eb00d03688007e26ef001e
:100464009226ef00a626ef00ba26ef00ce26ef0074
:10047400e226ef009e26a900a226a9009fa6a900b5
:100484006206a9006606a900020007000080fa00bf
:10049400000006000000fa0001088000f00b2000b4
:1004a400008160006004200071052000031020001a
:1004b400804978008149780082497800613f800052
:1004c40000f82f0000806000d000b300603f880077
:1004d40000088000000178000260a0006004200091
:1004e40071052000031020008049780081497800bc
:1004f400824978000080fa00000006000000fa003b
:100504009823ef009863a800f0192000001d8800cc
:100514009a23ef00a223ef0099e3a8009b43a800cd
:100524009b83a8000080fa00000006000200fa0085
:10053400004f78001e80fb00e01c880000000000d3
:10054400d11c800000102000008060000000e0004a
:10055400fbff32000080fa00000006000200fa00ef
:10056400000f7800040037001e0078001040780067
:10057400eeff07001e0fe8001e0078001040780010
:100584000004e000f8ff3a000080fa0000000600d2
:100594000400fa00000f78001107980004003700e7
:1005a4001e00780010407800e0ff07001e0fe800ee
:1005b4001e00900000f0a7000000ea000000ea001e
:1005c4004f00de00004078009e0090008100e900aa
:1005d400110798000004e000f1ff3a000080fa00df
:1005e400000006000000fa00ae23ef00ae63a8008e
:1005f400f0192000b01d8800b023ef00b823ef00ed
:10060400afe3a800b143a800b183a8000080fa00ba
:10061400000006000200fa00004f78001e80fb0074
:10062400901d880000000000811d80000010200043
:10063400008060000000e000fbff32000080fa0050
:10064400000006000200fa00000f780004003700e2
:100654001e00780010407800eeff07001e0fe8002f
:100664001e007800104078000004e000f8ff3a0013
:100674000080fa00000006000400fa00000f780071
:1006840011079800040037001e007800104078001d
:10069400e0ff07001e0fe8001e00900000f0a70016
:1006a4000000ea000000ea004f00de00004078008d
:1006b4009e0090008100e900110798000004e0000a
:1006c400f1ff3a000080fa00000006000000fa0082
:1006d400a1e1a8000c000700007d20002100070014
:1006e40011000700fcff37000000fa00a1e1a90097
:1006f4003622ef00d02e2000a0118800a1e1a8002e
:100704000080fa00000006000000fa00a1e1a90040
:100714003622ef0030512000a0118800a1e1a8008a
:100724000080fa00000006000000fa00a1e1a90020
:100734003622ef0090142000a0118800a1e1a80047
:100744000080fa00000006000000fa009421ef0087
:100754009021ef0000fa2000900c88000080fa003d
:10076400000006000400fa001007980095e1a800b4
:100774000000eb00000f78000700370000000000c5
:1007840040048000680060000000e000fcff3200cc
:100794008860a9001e0fe8001e0090009e0f500004
:1007a400f6ff3e0095e1a9000080fa000000060073
:1007b4000000fa003022ef003222ef0081118000a5
:1007c400f03f2e00008060008011880081118000bd
:1007d40080ff2f00008060005000b300801188006b
:1007e4009111800000fe2f0000806000c000b30063
:1007f400901188000080fa00000006000000fa0052
:1008040003ff0700eaff0700cfff0700040007000b
:100814003aff070073ff07000080fa00000006009b
:100824000000fa00a021ef00a081a800a0a1a90067
:100834009621ef00f0702200e00c88000080fa009e
:10084400000006000000fa00ecff07009fff07000d
:0c0854000000eb000080fa00000006002d
:020000040000fa
:020000040015e5
:047e0000ffffff0081
:020000040000fa
:020000040015e5
:047e2000ff1f000040
:020000040000fa
:020000040015e5
:047e3000faffff0056
:020000040000fa
:020000040015e5
:047e3800bdffff008b
:020000040000fa
:020000040015e5
:047e40009fffff00a1
:020000040000fa
:020000040015e5
:047e4800ffffff0039
:020000040000fa
:020000040015e5
:047e5000deffff0052
:020000040000fa
:020000040015e5
:047e5800ffffff0029
:00000001FF
